:04000000C6EF7AF0DD
:10F4A2009E961200C69A12009D961200C580120006
:10F4B200C5821200C5841200010E1200050E120050
:10F4C200C5861200C95012009E861200C58AC588E0
:10F4D2001200C59AC58812002C6E2CC0C9FF1200FA
:10F4E20059EC7AF0010E120059EC7AF0020E120079
:10F4F20059EC7AF0010E12005BEC7AF0000E120069
:10F502006AEC7AF0050E120067EC7AF00A0E12002D
:10F5120067EC7AF0090E1200000E4FEC7CF012003C
:10F522002492000E236E0E0E1200249061EC7AF0EB
:10F53200040E12002492000E236E0E0E120024807E
:10F54200D8801D346DEC7AF0050E120024801D5017
:10F552001D246DEC7AF0030E12005BEC7BF0BDEC27
:10F562007AF0D9EC7AF012009EA6BAEF7AF0BCEFEC
:10F572007AF0B5EF7AF01200600ED36E000ED26E02
:10F58200000E9B6E000E9A6E120000EE01F02B0E22
:10F59200EE6AE806FDE100012FEF7CF0C5BCD4EF76
:10F5A2007AF0D7EF7AF0010ED8EF7AF0000E12005F
:10F5B200000EC76E080EC66E000EC56E130EC86E24
:10F5C200C69A120031C02CF032C02DF033C02EF09A
:10F5D20034C02FF0000E3BEC7DF0120031C02CF055
:10F5E20032C02DF033C02EF034C02FF0020E3BECAF
:10F5F2007DF0120001EF7BF0B5EC7AF0CFEC7CF0FD
:10F6020024B206EF7BF008EF7BF0FDEF7AF01200F8
:10F61200456E4550B009466E46504AEC7BF0000EEE
:10F622004AEC7BF0100E4AEC7BF0120024A61CEF91
:10F632007BF01EEF7BF027EF7BF02CC01EF02DC07D
:10F642001FF02EC020F02FC021F024961200C6BA5F
:10F652002DEF7BF02FEF7BF038EF7BF0000EC76EC3
:10F66200080EC66E000EC56E130EC86EC68A120054
:10F67200426E400E436E42C044F0430E3D6E000E99
:10F682003E6E000E406E020E3F6E3C0E70EC7CF041
:10F692001200426E000E436E42C044F0430E3D6EB5
:10F6A200000E3E6E000E406E020E3F6E3C0E70EC7F
:10F6B2007CF01200000E896E000E8A6E000E8B6EB8
:10F6C200EF0E926E9368BF0E946EDF0E0F015D6FA8
:10F6D2007F0E5C6F000E5B6FF18E1200010E2C6EBE
:10F6E20024B276EF7BF078EF7BF082EF7BF024940C
:10F6F2001D6851EC7AF055EC7AF053EC7AF023C0A5
:10F702002CF02C50120035C02CF036C02DF0000E1B
:10F712002F6E020E2E6E17EC7BF0000E316E000E75
:10F72200326E000E336E000E346EE3EC7AF0040E8D
:10F73200120035C02CF036C02DF0000E2F6E010ED7
:10F742002E6E17EC7BF0000E316E000E326E000E44
:10F75200336E000E346EE3EC7AF0020E120035C006
:10F762002CF036C02DF0000E2F6E020E2E6E17EC0E
:10F772007BF0000E316E000E326E000E336E000E04
:10F78200346EE3EC7AF0020E120035C02CF036C073
:10F792002DF0000E2F6E010E2E6E17EC7BF0000E78
:10F7A200316E000E326E000E336E000E346EE3ECDC
:10F7B2007AF0040E1200000E466E000E456E000E28
:10F7C20039EC7BF0454A462A46BEEFEF7BF0040E49
:10F7D200465CD8A0EFEF7BF0F1EF7BF0E0EF7BF03F
:10F7E2001200FFEF7BF04CC0F6FF4DC0F7FFF86A46
:10F7F2000800F55003EC7DF04C4A4D2A4CC0F6FF50
:10F802004DC0F7FFF86A0800F5500009D8A40CEFC4
:10F812007CF00EEF7CF0F4EF7BF0120020EE02F0B1
:10F822003550D9263650DA22DECF2CF0DDCF2DF03E
:10F8320035C0D9FF36C0DAFFDECF2EF0DDCF2FF094
:10F8420017EC7BF0000E316E000E326E000E336E3E
:10F85200000E346EE3EC7AF0020E1200AEEC7AF097
:10F86200D9EC7AF0FBEC7DF0DCEC7BF0000E09ECDD
:10F872007BF0FB0E4C6EFF0E4D6EF2EC7BF0DCEC7F
:10F882007BF0010E09EC7BF0F70E4C6EFF0E4D6E15
:10F89200F2EC7BF04BEF7CF000EF00F03B6E010EE0
:10F8A2003C6E24B257EF7CF059EF7CF06EEF7CF0A7
:10F8B2002482000E3C6E3B50D8B462EF7CF064EFC1
:10F8C2007CF068EF7CF0010E226E6AEF7CF0020E93
:10F8D200226E57EC7AF0FBEC7AF03C501200416E4B
:10F8E2004150B5EC7DF00009D8B47AEF7CF07CEFA2
:10F8F2007CF071EF7CF03DC02CF03EC02DF03FC09B
:10F902002EF040C02FF017EC7BF0000E316E000E8F
:10F91200326E000E336E000E346EEFEC7AF08DEC28
:10F922007AF06FEC7BF0E806D8B49AEF7CF09CEFAB
:10F932007CF092EF7CF012002490020E236EAAEF6C
:10F942007CF079EC7AF0CEEF7CF07DEC7AF0CEEFC1
:10F952007CF011C035F012C036F002D8BAEF7CF05C
:10F962000500FA6E0550FD6E0650FE6EFF6AFA50F3
:10F972001200376E386A3850000AD8B4C3EF7CF0F0
:10F98200A6EF7CF03750020AD8B4A2EF7CF0010A4D
:10F99200D8B4A2EF7CF0A6EF7CF0120051EC7AF022
:10F9A20024A0D6EF7CF0D8EF7CF0E4EF7CF0CFEC33
:10F9B2007AF00009D8B4E0EF7CF0E2EF7CF0E4EFFB
:10F9C2007CF00F0E226E2250020DF70EF324F66E1B
:10F9D200FD0EF420F76EF86A000EF8220900F5CF4A
:10F9E20039F00900F5CF3AF002D801EF7DF00500B9
:10F9F200FA6E3950FD6E3A50FE6EFF6AFA501200EE
:10FA0200226E1200496E000E4B6E000E4A6E600EA0
:10FA1200456EFF0E466E4950050D170E476EFE0EDF
:10FA2200486EF3504726F45048224A5047264B501E
:10FA32004822455047264650482247C0F6FF48C054
:10FA4200F7FFF86A0800F55039EC7BF04A4A4B2A76
:10FA52004BBE35EF7DF04B5009E1050E4A5CD8A054
:10FA620035EF7DF037EF7DF008EF7DF0000E39ECD9
:10FA72007BF01200306E2C502D10D8B443EF7DF085
:10FA820045EF7DF05FEF7DF03050020D010EF32463
:10FA9200D96E000EF420DA6E2CC0DEFF2DC0DDFF21
:10FAA2003050020D0D0EF324D96E000EF420DA6EE2
:10FAB2002EC0DEFF2FC0DDFF77EF7DF03050020D4C
:10FAC200010EF324D96E000EF420DA6EBA0EDE6E49
:10FAD200F40EDD6E3050020D0D0EF324D96E000EC1
:10FAE200F420DA6E000EDE6E000EDD6E1200248649
:10FAF20088EF7DF079EC7AF0B4EF7DF065EC7AF086
:10FB0200030EB4EF7DF07DEC7AF0B4EF7DF00DC022
:10FB120035F00EC036F002D898EF7DF00500FA6E8F
:10FB22000150FD6E0250FE6EFF6AFA501200376EEF
:10FB3200386A3850000AD8B4A1EF7DF084EF7DF026
:10FB42003750010AD8B484EF7DF0030AD8B47BEFB2
:10FB52007DF0010AD8B47BEF7DF0070AD8B47FEFBD
:10FB62007DF084EF7DF012002C6E010E2D6E24B418
:10FB7200BDEF7DF0BFEF7DF0F9EF7DF02CC01DF001
:10FB82002492248424900E0E226E010E1C6EF40E1A
:10FB92001B6E2486BA0E016EF40E026E000E0D6EFE
:10FBA200000E0E6EBA0E036EF40E046E000E0F6E91
:10FBB200000E106EBA0E056EF40E066E000E116E79
:10FBC200000E126EBA0E076EF40E086E000E136E61
:10FBD200000E146EBE0E096EF40E0A6E000E156E45
:10FBE200000E166E51EC7AF028EC7BF0000E2D6EB2
:10FBF2002D501200AE0E4AEC7BF0D50E4AEC7BF093
:10FC0200800E4AEC7BF0A80E4AEC7BF03F0E4AECE9
:10FC12007BF0D30E4AEC7BF0000E4AEC7BF0400EF8
:10FC22004AEC7BF08D0E4AEC7BF0140E4AEC7BF032
:10FC3200200E4AEC7BF0000E4AEC7BF0A10E4AEC5F
:10FC42007BF0C80E4AEC7BF0DA0E4AEC7BF0020E37
:10FC52004AEC7BF0810E4AEC7BF08F0E4AEC7BF093
:10FC6200D90E4AEC7BF0F10E4AEC7BF0DB0E4AEC4B
:10FC72007BF0400E4AEC7BF0A40E4AEC7BF0A60E21
:10FC82004AEC7BF02E0E4AEC7BF0AF0E4AEC7BF096
:10FC9200120063EC7AF01EC0D9FF1FC0DAFFDF6EDC
:10FCA2001E4A1F2A2006D8A0210620502110D8B4AF
:10FCB2005DEF7EF05FEF7EF064EF7EF06AEC7AF04B
:10FCC200050E9BEF7EF024866FEF7EF089EC7AF0D2
:10FCD2009BEF7EF085EC7AF09BEF7EF00DC035F065
:10FCE2000EC036F002D87FEF7EF00500FA6E0150AA
:10FCF200FD6E0250FE6EFF6AFA501200376E386ACD
:10FD02003850000AD8B488EF7EF06BEF7EF037509F
:10FD1200010AD8B46BEF7EF0030AD8B467EF7EF025
:10FD2200010AD8B467EF7EF0070AD8B46BEF7EF011
:10FD32006BEF7EF01200CFEC7AF00009D8B4A4EF9A
:10FD42007EF0A6EF7EF0E0EF7EF0B4EF7EF071EC95
:10FD52007AF0FAEF7EF075EC7AF0FAEF7EF07DEC55
:10FD62007AF0FAEF7EF013C035F014C036F002D804
:10FD7200C4EF7EF00500FA6E0750FD6E0850FE6E6D
:10FD8200FF6AFA501200376E386A3850000AD8B447
:10FD9200CDEF7EF0B0EF7EF03750010AD8B4B0EF6D
:10FDA2007EF0030AD8B4A8EF7EF0010AD8B4ACEF13
:10FDB2007EF0070AD8B4B0EF7EF0B0EF7EF0249068
:10FDC2001EC0D9FF1FC0DAFF1E4A1F2ADF506DEC8A
:10FDD2007AF02006D8A0210620502110D8A4F4EFF2
:10FDE2007EF0F6EF7EF0F9EF7EF0060EFAEF7EF08F
:10FDF200030E12000022F540F54EF538FD94FC2C5E
:10FE0200F5F0FAE2F4EAF4F2F4FAF402F50AF51281
:10FE1200F536F53AF9000000000000005F0000002E
:10FE220007000700147F147F14242A7F2A12231349
:10FE320008646236495522500005030000001C2266
:10FE420041000041221C0014083E081408083E0824
:10FE52000800503000000808080808006060000030
:10FE620020100804023E5149453E00427F400042B4
:10FE7200615149462141454B311814127F102745E3
:10FE82004545393C4A49493001710905033649491A
:10FE92004936064949291E0036360000005636000A
:10FEA20000081422410014141414140041221408EE
:10FEB2000201510906324979413E7E1111117E7FBC
:10FEC200494949363E414141227F4141221C7F49F5
:10FED2004949417F090909013E4149497A7F080898
:10FEE200087F00417F41002040413F017F081422EA
:10FEF200417F404040407F020C027F7F0408107F18
:10FF02003E4141413E7F090909063E4151215E7F42
:10FF120009192946464949493101017F01013F40FA
:10FF220040403F1F2040201F3F4038403F6314089D
:10FF3200146307087008076151494543007F414136
:10FF42000002040810200041417F00040201020463
:10FF52004040404040000102040020545454787F45
:10FF6200484444383844444420384444487F385450
:10FF7200545418087E0901020C5252523E7F080462
:10FF8200047800447D40002040443D007F10284416
:10FF92000000417F40007C041804787C0804047847
:10FFA20038444444387C14141408081414187C7C13
:10FFB200080404084854545420043F4440203C4060
:10FFC20040207C1C2040201C3C4030403C442810F7
:10FFD20028440C5050503C4464544C440008364170
:10FFE2000000007F000000413608001008081008D9
:0DFFF20078464146784F4C41004F490000D1
:020000040020DA
:08000000FFFFFFFFFFFFFFFF00
:020000040030CA
:0E00000015087F7CFF8991FF0FC00FE00F40B5
:00000001FF
